S123FD0086049710860A97118E013FC60A867ECEFD453C365A26FB8E01147EFE1796118476
S123FD208027FA9612817F27F4398DF1810D270A37D611C42027FA97133339A60027058D4D
S123FD40EF0820F739CEFF0EBDFD3B20FECE0140FF0040A6001643A700A100260AE70008B6
S123FD608CC000270220ECFF0040398DBD81302B4181392F0A81412B3981462E358007391C
S123FD808DA8815326FA8DA281392726813126F07F011E8D2E8002B7011F8D198D257A01B3
S123FDA01F2705A7000820F47C011E27D3863FBDFD307EFE4E8D0CB701208D07B70121FE47
S123FDC00120398DA648484848168D9F840F1B16FB011EF7011E398DDC8D378D338DE4099C
S123FDE0A700A10026C720668DCB8D268DD5A700205C44444444840F8B30813922037EFDFC
S123FE00308B077EFD30A6008DE8A6008DE808398DF486207EFD30BDFD4DCEFE90BDFD3BD0
S123FE20CEFF33BDFD3BCE0040BDFE06BDFE06CEFF47BDFD3BCEFEBABDFD3B2011CEFEEFC9
S123FE40BDFD3B30FF011CC6098DC55A26FB8E0114860DBDFD30860ABDFD30CEFEE8BDFDB9
S123FE603BBDFD2A16BDFE12C1582606BDB8007EFE17C14C26037EFD80C14D26037EFDD775
S123FE80C15726037EFDE8C15027B2C14726BF3B0D0A2A2A2A204B62756720312E3030206B
S123FEA0666F7220484436333033592045564220312E30202A2A2A0D0A0047286F292C4C46
S123FEC0286F6164292C5028726F63292C4D286F64292C572872697465292C58286563757A
S123FEE07465293F3A0D0A004B4255472D3E000D0A434320422020412020584820584C2094
S123FF00504820504C20534820534C0D0A000D0A457272202D20766563746F722074616261
S123FF206C6520656E747279206E6F20696E69740D0A0052414D207465737420706173731B
S10EFF40656420746F20002E0D0A0081
S119FFEA012201250128012B012E013101340137013A013DFD001B
S9030000FC
