S123FD0086049710860A97118E013FC60A867ECEFD523C365A26FB8E01147EFE249611845C
S123FD208027FA9612817F27F43981612506817A220284DF398DE68DF1810D270A37D6118C
S123FD40C42027FA97133339A60027058DEF0820F739CEFF1BBDFD4820FECE0140FF004088
S123FD60A6001643A700A100260AE700088CC000270220ECFF0040398DBB81302B41813901
S123FD802F0A81412B3981462E358007398DA6815326FA8DA081392726813126F07F011E55
S123FDA08D2E8002B7011F8D198D257A011F2705A7000820F47C011E27D3863FBDFD3D7E7B
S123FDC0FE5B8D0CB701208D07B70121FE0120398DA648484848168D9F840F1B16FB011E1D
S123FDE0F7011E398DDC8D378D338DE409A700A10026C720668DCB8D268DD5A700205C44BA
S123FE00444444840F8B30813922037EFD3D8B077EFD3DA6008DE8A6008DE808398DF48665
S123FE20207EFD3DBDFD5ACEFE9DBDFD48CEFF40BDFD48CE0040BDFE13BDFE13CEFF54BDD0
S123FE40FD48CEFEC7BDFD482011CEFEFCBDFD4830FF011CC6098DC55A26FB8E0114860DAB
S123FE60BDFD3D860ABDFD3DCEFEF5BDFD48BDFD3516BDFE1FC1582606BDB8007EFE24C143
S123FE804C26037EFD8DC14D26037EFDE4C15726037EFDF5C15027B2C14726BF3B0D0A2A47
S123FEA02A2A204B62756720312E303320666F7220484436333033592045564220312E307B
S123FEC0202A2A2A0D0A0047286F292C4C286F6164292C5028726F63292C4D286F64292C8B
S123FEE0572872697465292C58286563757465293F3A0D0A004B4255472D3E000D0A4343F6
S123FF0020422020412020584820584C20504820504C20534820534C0D0A000D0A45727211
S123FF20202D20766563746F72207461626C6520656E747279206E6F20696E69740D0A005B
S11BFF4052414D20746573742070617373656420746F20002E0D0A00DD
S119FFEA012201250128012B012E013101340137013A013DFD001B
S9030000FC
